:10000000020557008F828E83E0540100000070F8D3
:100010002278FFE4F6D8FD0205B5BB010689828A85
:1000200083E0225002E722BBFE02E32289828A8318
:10003000E49322BB010689828A83F0225002F722D0
:10004000BBFE01F322C5F0F8A3E028F0C5F0F8E507
:1000500082158270021583E038F022EF2BFFEE3A12
:10006000FEED39FDEC38FC22E88FF0A4CC8BF0A437
:100070002CFCE98EF0A42CFC8AF0EDA42CFCEA8E7A
:10008000F0A4CDA8F08BF0A42DCC3825F0FDE98F9D
:10009000F0A42CCD35F0FCEB8EF0A4FEA9F0EB8F94
:1000A000F0A4CFC5F02ECD39FEE43CFCEAA42DCE61
:1000B00035F0FDE43CFC2275F008758200EF2FFF5F
:1000C000EE33FECD33CDCC33CCC58233C5829BED30
:1000D0009AEC99E58298400CF582EE9BFEED9AFD34
:1000E000EC99FC0FD5F0D6E4CEFBE4CDFAE4CCF9E4
:1000F000A88222B800C1B90059BA002DEC8BF08457
:10010000CFCECDFCE5F0CBF97818EF2FFFEE33FE24
:10011000ED33FDEC33FCEB33FB10D703994004EBDC
:1001200099FB0FD8E5E4F9FA227818EF2FFFEE33A8
:10013000FEED33FDEC33FCC933C910D7059BE99ABA
:100140004007EC9BFCE99AF90FD8E0E4C9FAE4CC4B
:10015000FB2275F010EF2FFFEE33FEED33FDCC33B5
:10016000CCC833C810D7079BEC9AE899400AED9B9E
:10017000FDEC9AFCE899F80FD5F0DAE4CDFBE4CC7D
:10018000FAE4C8F922EF4BFFEE4AFEED49FDEC48D8
:10019000FC22EB9FF5F0EA9E42F0E99D42F0E89CDC
:1001A00045F022E8600FECC313FCED13FDEE13FEE7
:1001B000EF13FFD8F122E8600FEFC333FFEE33FEF9
:1001C000ED33FDEC33FCD8F122BB010789828A8331
:1001D0000202035005E9F80202BCBBFE05E9F80281
:1001E00002C889828A830202D4BB010789828A837A
:1001F00002021B5005E9F80202E4BBFE05E9F80221
:1002000002F022E0FCA3E0FDA3E0FEA3E0FF22E079
:10021000F8A3E0F9A3E0FAA3E0FB22ECF0A3EDF0F1
:10022000A3EEF0A3EFF022E0FBA3E0FAA3E0F922B3
:10023000EBF0A3EAF0A3E9F022E493FB740193FA54
:10024000740293F922D083D082F8E493701274017F
:1002500093700DA3A393F8740193F5828883E473DC
:100260007402936860EFA3A3A380DFE50C2582F5F9
:1002700082E50B3583F583B50B0485820C2210AF24
:100280000685820CF50B2285820CF50BD2AF22EC91
:100290008EF0A4CCC5F0CCCDF8EFA4CEC5F02DFDEA
:1002A000E43CFCE8A42EC8C5F03DFDE43CFCEFA412
:1002B000FFE5F028FEE43DFDE43CFC22E6FC08E618
:1002C000FD08E6FE08E6FF22E2FC08E2FD08E2FE89
:1002D00008E2FF22E493FC740193FD740293FE7420
:1002E0000393FF22ECF608EDF608EEF608EFF6228F
:1002F000ECF208EDF208EEF208EFF2227B007A460B
:1003000079E81209A2EF4405FD7B007A4679E812EC
:1003100009AE750A00E50AC39409503AAF0AEF75B1
:10032000F005A424CCF582E43409F583AF82AE83D2
:100330008E088F09AE08AF098F828E83120239AE04
:1003400008AF098F828E83740393FC740493FD12AB
:1003500007DD050A80BF7B087A0079001207B07BB1
:10036000017A5079031209A2EF4402FD7B017A5011
:1003700079031209AE7B017A5079131209A2EF4476
:1003800002FD7B017A5079131209AE9043A0E0FF81
:10039000EF4440FF9043A0EFF09043C2E0FFEF44F2
:1003A00010FF9043C2EFF07B087A01793CC003C094
:1003B00002C0017B007A517912900057120230D0AE
:1003C00001D002D0037F087E0012077C7B087A01EF
:1003D0007944C003C002C0017B007A517962900069
:1003E00057120230D001D002D0037F087E001207DE
:1003F0007C904322E0FFEF4408FF904322EFF0900F
:1004000046ECE0FFEFC394055006904689743AF03D
:100410009048007431F012045390480074B1F01207
:1004200007467B007A4379A0C003C002C0017B006D
:100430007A4379B0900057120230D001D002D00335
:100440007F0E7E0012077C9043B0E0FFEF54FDFF6B
:10045000EFF0227B007A4079807DBF7C1212096127
:100460009040827418F09043007402F09040007441
:1004700008F09042007403F07B0C7A0179081209AD
:10048000A29046A1EFF07B007A4279227D087C00A1
:100490001209617B007A4279207D517C1212096138
:1004A000900056E4F07F197E007D007C00900052A1
:1004B00012021B900052120203D3EF9400EE94003C
:1004C000404E900056E0FFEF64036044904225E008
:1004D000FFEF5401FF7E00900056E0FEEE25E0FEA7
:1004E000EE4FFFEF5403FF900056EFF07FE07E01E8
:1004F0007D007C001208009000521202037BFF7AFC
:10050000FF79FF78FF12005B90005212021B80A35C
:10051000900052120203EF4E70057F031208BE7B5B
:10052000007A4079047D007C0112096190400474D6
:1005300007F0904006E4F09040087448F0904004C2
:10054000E4F09040017402F09043A2E0FFEF440118
:10055000FF9043A2EFF022759300780075834675F3
:1005600082E8E04401F0009046ECE0F99046FAE0C1
:10057000FAB903225420B40012B8001AEA901FFFFF
:10058000F07401901FFEF09046F6F0901FFEE060C0
:1005900005901FFFE0FA90480074C0F075810C9040
:1005A000000078007920E4F0A3D8FCD9FAEA9000A2
:1005B0004DF0020011750B1F750CFD1206F81202AA
:1005C000FC0205FF0208D0E493A3F8E493A34003E0
:1005D000F68001F208DFF48029E493A3F85407249D
:1005E0000CC8C333C4540F4420C8834004F456805D
:1005F0000146F6DFE4800B010204081020408090E1
:10060000083BE47E019360BCA3FF543F30E50954EE
:100610001FFEE493A360010ECF54C025E060A84004
:10062000B8E493A3FAE493A3F8E493A3C8C582C8FB
:10063000CAC583CAF0A3C8C582C8CAC583CADFE9D0
:10064000DEE780BE90647CE0FFEF54C0FF90005274
:10065000EFF0900052E0FFEF4409FF90647CEFF070
:1006600090649CE0FFEF4401FFEFF07FFF1208E190
:100670007FFF1208F17F7F1209017F00120911121A
:1006800008A9900053EFF090649CE0FFEF4410FF46
:10069000EFF0900053E0FF12086712097022906497
:1006A0007DE0FFEF54C0FF900052EFF0900052E069
:1006B000FFEF4409FF90647DEFF090649DE0FFEF51
:1006C0004401FFEFF07FFB1209217FFB1209317F0C
:1006D0007D1209417F001209511208A9900053EFC1
:1006E000F090649DE0FFEF4410FFEFF0900053E0C6
:1006F000FF12086712097D22900052E4F090005228
:10070000E0FFEFD3941F503D900052E0FF7E02EFD8
:100710008EF0A4FFAEF0EF2400FFEE3444FEAA06F4
:10072000A9077B01C003C002C0017BFF7A0779FCE7
:10073000AC02AD01D001D002D00312096390005287
:10074000E004F080B8227B0C7A0179CF1209A290E4
:100750000052EFF0900052E0FFEF5407FF90586E08
:10076000EFF0900052E0FFEFC4540FFFEF540FFF83
:1007700090586FEFF09058767444F022758600EF31
:100780004E6027EF60010E759300900057E0F595DD
:10079000A3E0F585A3E0F5848B938A838982E0A3A7
:1007A0000586F0A31586DFF6DEF4E4F593F59522D1
:1007B000ACEAADA08B938A838982E0F96017A3E04D
:1007C000F5EAA3E0F5A0A3E060F4FAA3E0F8A3E063
:1007D000F2DAF8D9E98DA08CEAE4F59322EC4D60C9
:1007E00011ED60010C8B938A838982E4F0A3DDFC18
:0F07F000DCFA7593002290646CE0FF2280FE32E9
:10080000EC4D4E700D78FCEF24E950032840FD229A
:1008100000007BF178DA0000EF28FF78FFEE38FE69
:10082000ED38FDEC38FC50E7EF2BFFEE38FEED38ED
:10083000FDEC38FC40F2220502030441005F004158
:10084000006000440049016E360044004400005D31
:10085000C04100481844004E2EE0000043005A00FA
:1008600000004100610000EF54016004D2AF80023B
:10087000C2AFEF5402FF9044F4E054FD4FF02290D9
:10088000005FE0FFEF700912064490005F7401F012
:1008900012098A22900060E0FFEF700912069E9014
:1008A00000607401F0120996229044F4E0F84402CA
:1008B000F0E85402FF10AF012274014FFF229000B4
:1008C00057EFF0900057E0FF900057EFF080FE22C6
:1008D000D2AF9044F474FDF012087F12089480FEA9
:1008E00022900054EFF0900054E0FF90640CEFF081
:1008F00022900054EFF0900054E0FF90644CEFF031
:1009000022900054EFF0900054E0FF90642CEFF040
:1009100022900054EFF0900054E0FF90648CEFF0D0
:1009200022900054EFF0900054E0FF90640DEFF03F
:1009300022900054EFF0900054E0FF90644DEFF0EF
:1009400022900054EFF0900054E0FF90642DEFF0FF
:1009500022900054EFF0900054E0FF90648DEFF08F
:10096000228B938A838982EDF0A3ECF075930022A9
:100970001207F6EF30E4051209BA80F4221209C01A
:10098000EF30E4051209C680F42290647CE0FFEFAA
:100990004480FFEFF02290647DE0FFEF4480FFEFA2
:1009A000F0228B938A838982E0759300FF228B93D8
:1009B0008A838982EDF07593002290645CE0FF22C7
:1009C00090646DE0FF2290645DE0FF220051000022
:1009D0001000512000400051C000100051F00010E4
:1009E000010000100001140008000140000A00018D
:0909F0004C00020001500000203F
:00000001FF
