:1000000002056A008F828E83E0540100000070F8C0
:100010002278FFE4F6D8FD0205C8BB010689828A72
:1000200083E0225002E722BBFE02E32289828A8318
:10003000E49322BB010689828A83F0225002F722D0
:10004000BBFE01F322C5F0F8A3E028F0C5F0F8E507
:1000500082158270021583E038F022EF2BFFEE3A12
:10006000FEED39FDEC38FC22E88FF0A4CC8BF0A437
:100070002CFCE98EF0A42CFC8AF0EDA42CFCEA8E7A
:10008000F0A4CDA8F08BF0A42DCC3825F0FDE98F9D
:10009000F0A42CCD35F0FCEB8EF0A4FEA9F0EB8F94
:1000A000F0A4CFC5F02ECD39FEE43CFCEAA42DCE61
:1000B00035F0FDE43CFC2275F008758200EF2FFF5F
:1000C000EE33FECD33CDCC33CCC58233C5829BED30
:1000D0009AEC99E58298400CF582EE9BFEED9AFD34
:1000E000EC99FC0FD5F0D6E4CEFBE4CDFAE4CCF9E4
:1000F000A88222B800C1B90059BA002DEC8BF08457
:10010000CFCECDFCE5F0CBF97818EF2FFFEE33FE24
:10011000ED33FDEC33FCEB33FB10D703994004EBDC
:1001200099FB0FD8E5E4F9FA227818EF2FFFEE33A8
:10013000FEED33FDEC33FCC933C910D7059BE99ABA
:100140004007EC9BFCE99AF90FD8E0E4C9FAE4CC4B
:10015000FB2275F010EF2FFFEE33FEED33FDCC33B5
:10016000CCC833C810D7079BEC9AE899400AED9B9E
:10017000FDEC9AFCE899F80FD5F0DAE4CDFBE4CC7D
:10018000FAE4C8F922EF4BFFEE4AFEED49FDEC48D8
:10019000FC22EB9FF5F0EA9E42F0E99D42F0E89CDC
:1001A00045F022E8600FECC313FCED13FDEE13FEE7
:1001B000EF13FFD8F122E8600FEFC333FFEE33FEF9
:1001C000ED33FDEC33FCD8F122BB010789828A8331
:1001D0000202035005E9F80202BCBBFE05E9F80281
:1001E00002C889828A830202D4BB010789828A837A
:1001F00002021B5005E9F80202E4BBFE05E9F80221
:1002000002F022E0FCA3E0FDA3E0FEA3E0FF22E079
:10021000F8A3E0F9A3E0FAA3E0FB22ECF0A3EDF0F1
:10022000A3EEF0A3EFF022E0FBA3E0FAA3E0F922B3
:10023000EBF0A3EAF0A3E9F022E493FB740193FA54
:10024000740293F922D083D082F8E493701274017F
:1002500093700DA3A393F8740193F5828883E473DC
:100260007402936860EFA3A3A380DFE50C2582F5F9
:1002700082E50B3583F583B50B0485820C2210AF24
:100280000685820CF50B2285820CF50BD2AF22EC91
:100290008EF0A4CCC5F0CCCDF8EFA4CEC5F02DFDEA
:1002A000E43CFCE8A42EC8C5F03DFDE43CFCEFA412
:1002B000FFE5F028FEE43DFDE43CFC22E6FC08E618
:1002C000FD08E6FE08E6FF22E2FC08E2FD08E2FE89
:1002D00008E2FF22E493FC740193FD740293FE7420
:1002E0000393FF22ECF608EDF608EEF608EFF6228F
:1002F000ECF208EDF208EEF208EFF2227B007A460B
:1003000079E8120B43EF4405FD7B007A4679E81249
:100310000B4F750A00E50AC39409503AAF0AEF750E
:10032000F005A4249CF582E4340BF583AF82AE8300
:100330008E088F09AE08AF098F828E83120239AE04
:1003400008AF098F828E83740393FC740493FD12AB
:1003500008D8050A80BF7B087A0079001208AB7BB9
:10036000017A507903120B43EF4402FD7B017A506E
:100370007903120B4F7B017A507913120B43EF4430
:1003800002FD7B017A507913120B4F9043A0E0FFDE
:10039000EF4440FF9043A0EFF09043C2E0FFEF44F2
:1003A00010FF9043C2EFF07B087A02798CC003C043
:1003B00002C0017B007A517912900057120230D0AE
:1003C00001D002D0037F087E001208777B087A02F2
:1003D0007994C003C002C0017B007A517962900019
:1003E00057120230D001D002D0037F087E001208DD
:1003F00077904322E0FFEF4408FF904322EFF09014
:1004000046ECE0FFEFC394055006904689743AF03D
:100410009048007431F012045390480074B1F01207
:10042000080D7B007A4379A0C003C002C0017B00A5
:100430007A4379B0900057120230D001D002D00335
:100440007F0E7E001208779043B0E0FFEF54FDFF6F
:10045000EFF0227B007A4079807DBF7C121208F198
:100460009040827418F07B007A4079847DBF7C12C2
:100470001208F19040867418F09043007402F090D6
:1004800040007408F09042007403F07B0C7A01790C
:1004900008120B439046A1EFF07B007A4279227D4F
:1004A000087C001208F17B007A4279207D517C1291
:1004B0001208F1900056E4F07F197E007D007C0068
:1004C00090005212021B900052120203D3EF9400CC
:1004D000EE9400404E900056E0FFEF6403604490BD
:1004E0004225E0FFEF5401FF7E00900056E0FEEE53
:1004F00025E0FEEE4FFFEF5403FF900056EFF07F34
:10050000E07E017D007C001209009000521202037F
:100510007BFF7AFF79FF78FF12005B900052120296
:100520001B80A3900052120203EF4E70057F03124E
:1005300009BC7B007A4079047D007C011208F190AF
:1005400040047407F0904006E4F09040087448F0CE
:10055000904004E4F09040017402F09043A2E0FF68
:10056000EF4403FF9043A2EFF022759300780075EB
:1005700083467582E8E04401F0009046ECE0F99093
:1005800046FAE0FAB903225420B40012B8001AEA7D
:10059000901FFFF07401901FFEF09046F6F0901F40
:1005A000FEE06005901FFFE0FA90480074C0F0750F
:1005B000810C90000078007920E4F0A3D8FCD9FAEF
:1005C000EA90004DF0020011750B1F750CFD12072B
:1005D000BF1202FC0206120209CEE493A3F8E493D0
:1005E000A34003F68001F208DFF48029E493A3F826
:1005F0005407240CC8C333C4540F4420C883400498
:10060000F456800146F6DFE4800B01020408102056
:100610004080900843E47E019360BCA3FF543F30C8
:10062000E509541FFEE493A360010ECF54C025E0FA
:1006300060A840B8E493A3FAE493A3F8E493A3C8B2
:10064000C582C8CAC583CAF0A3C8C582C8CAC58343
:10065000CADFE9DEE780BE90647AE0FFEF54C0FFB6
:10066000900052EFF0900052E0FFEF4409FF9064D9
:100670007AEFF090649AE0FFEF4401FFEFF07FFF24
:100680001209DF7FFF1209EF7F7F1209FF7F00123F
:100690000A0F1209A7900053EFF090649AE0FFEF61
:1006A0004410FFEFF0900053E0FF12093B120ADF05
:1006B0002290647EE0FFEF54C0FF900052EFF09074
:1006C0000052E0FFEF4409FF90647EEFF090649EDB
:1006D000E0FFEF4401FFEFF07FFB120A1F7FFB12E8
:1006E0000A2F7F7D120A3F7F00120A4F1209A7903E
:1006F0000053EFF090649EE0FFEF4410FFEFF090A6
:100700000053E0FF12093B120AEC2290647BE0FFE9
:10071000EF54C0FF900052EFF0900052E0FFEF4422
:1007200009FF90647BEFF090649BE0FFEF4401FFD2
:10073000EFF07FFF120A5F7FFF120A6F7F7F120ABE
:100740007F7F00120A8F1209A7900053EFF0906488
:100750009BE0FFEF4410FFEFF0900053E0FF120921
:100760003B120AF92290647FE0FFEF54C0FF900033
:1007700052EFF0900052E0FFEF4409FF90647FEFEA
:10078000F090649FE0FFEF4401FFEFF07FC8120A92
:100790009F7FC8120AAF7F7D120ABF7F00120ACF67
:1007A0001209A7900053EFF090649FE0FFEF441010
:1007B000FFEFF0900053E0FF12093B120B0622906E
:1007C0000052E4F0900052E0FFEFD3941F503D90B0
:1007D0000052E0FF7E02EF8EF0A4FFAEF0EF2400A7
:1007E000FFEE3444FEAA06A9077B01C003C002C085
:1007F000017BFF7A0B7999AC02AD01D001D002D018
:10080000031208F3900052E004F080B8227B0C7AC7
:100810000179CF120B43900052EFF0900052E0FFAD
:10082000EF5407FF90586EEFF0900052E0FFEFC4D6
:10083000540FFFEF540FFF90586FEFF090587674FD
:1008400044F02241005F004100600041006100412E
:10085000006200440049016E360044004400005D1F
:10086000C04100481844004E2EE0000043005A00EA
:1008700000004100630000758600EF4E6027EF60C6
:10088000010E759300900057E0F595A3E0F585A360
:10089000E0F5848B938A838982E0A30586F0A31513
:1008A00086DFF6DEF4E4F593F59522ACEAADA08B95
:1008B000938A838982E0F96017A3E0F5EAA3E0F563
:1008C000A0A3E060F4FAA3E0F8A3E0F2DAF8D9E933
:1008D0008DA08CEAE4F59322EC4D6011ED60010CE3
:1008E0008B938A838982E4F0A3DDFCDCFA759300A4
:1008F000228B938A838982EDF0A3ECF0759300221A
:10090000EC4D4E700D78FCEF24E950032840FD2299
:1009100000007BF178DA0000EF28FF78FFEE38FE68
:10092000ED38FDEC38FC50E7EF2BFFEE38FEED38EC
:10093000FDEC38FC40F22205020304EF5401600490
:10094000D2AF8002C2AFEF5402FF9044F4E054FDF6
:100950004FF02290005FE0FFEF7009120657900001
:100960005F7401F0120B1322900060E0FFEF70093A
:100970001206B19000607401F0120B1F229000610A
:10098000E0FFEF700912070B9000617401F0120B89
:100990002B22900062E0FFEF700912076590006261
:1009A0007401F0120B37229044F4E0F84402F0E8AE
:1009B0005402FF10AF012274014FFF22900057EF45
:1009C000F0900057E0FF900057EFF080FE22D2AF8A
:1009D0009044F474FDF0120B5B120B6280FE2290C7
:1009E0000054EFF0900054E0FF90640AEFF0229082
:1009F0000054EFF0900054E0FF90644AEFF0229032
:100A00000054EFF0900054E0FF90642AEFF0229041
:100A10000054EFF0900054E0FF90648AEFF02290D1
:100A20000054EFF0900054E0FF90640EEFF022903D
:100A30000054EFF0900054E0FF90644EEFF02290ED
:100A40000054EFF0900054E0FF90642EEFF02290FD
:100A50000054EFF0900054E0FF90648EEFF022908D
:100A60000054EFF0900054E0FF90640BEFF0229000
:100A70000054EFF0900054E0FF90644BEFF02290B0
:100A80000054EFF0900054E0FF90642BEFF02290C0
:100A90000054EFF0900054E0FF90648BEFF0229050
:100AA0000054EFF0900054E0FF90640FEFF02290BC
:100AB0000054EFF0900054E0FF90644FEFF022906C
:100AC0000054EFF0900054E0FF90642FEFF022907C
:100AD0000054EFF0900054E0FF90648FEFF022128A
:100AE0000B69EF30E405120B6F80F422120B75EFE7
:100AF00030E405120B7B80F422120B81EF30E40509
:100B0000120B8780F422120B8DEF30E405120B9349
:100B100080F42290647AE0FFEF4480FFEFF02290AF
:100B2000647EE0FFEF4480FFEFF02290647BE0FF03
:100B3000EF4480FFEFF02290647FE0FFEF4480FFFE
:100B4000EFF0228B938A838982E0759300FF228BDA
:100B5000938A838982EDF07593002212097D120930
:100B600092221209531209682290646AE0FF2290CF
:100B7000645AE0FF2290646EE0FF2290645EE0FF22
:100B80002290646BE0FF2290645BE0FF2290646F30
:100B9000E0FF2290645FE0FF2280FE3200510000FF
:100BA0001000512000400051C000100051F0001012
:100BB000010000100001140008000140000A0001BB
:090BC0004C00020001500000206D
:00000001FF
